:04000000020029329F
:03000B00020914D3
:0100130032BA
:01001B0032B2
:03002300020C1BB1
:03008B000200264A
:0300260002008E47
:0E008E0012094812009C12109112109780FB6C
:20009C00538EBF53DF3F43DF0253DFFA75D10775D9CFD2DE22C00D85810DE582FF540360AA
:2000BC000302024CE50D24FDF8E630E01BEF0303543FFE74075EF5F005F07401800225E080
:2000DC00D5F0FBFE42B2801AEF0303543FFE74075EF5F005F07401800225E0D5F0FBF4FED1
:2000FC0052B2E50D24FDF8E6035401FE601BEF0303543FFE74075EF5F005F07401800225C9
:20011C00E0D5F0FBFE42B1801AEF0303543FFE74075EF5F005F07401800225E0D5F0FBF4AF
:20013C00FE52B174805FFEBE800280030201D2EF03035407FE24FA500302024CEE2E2E90D0
:20015C00015F730201710201770201CF02017D0201830201A943DE0802024C43DE10020290
:20017C004C43DE2002024CA2AFE433F508C2AF75C7AA75C75543910143C60875C7AA75C731
:20019C00555391FEE50824FF92AF02024CA2AFE433F508C2AF75C7AA75C75543910143C640
:2001BC000475C7AA75C7555391FEE50824FF92AF02024C02024CEF03035407FE24FA4070B9
:2001DC00EE2E2E9001E3730201F50201FA02024C0201FF02020402022953DEF7805253DE2B
:2001FC00EF804D53DEDF8048A2AFE433F508C2AF75C7AA75C75543910153C6F775C7AA75C2
:20021C00C7555391FEE50824FF92AF8023A2AFE433F508C2AF75C7AA75C75543910153C695
:20023C00FB75C7AA75C7555391FEE50824FF92AF74035FFEBE010280030203E4E50D24FDE9
:20025C00F8E630E01BEF0303543FFE74075EF5F005F07401800225E0D5F0FBFE42B4801AF6
:20027C00EF0303543FFE74075EF5F005F07401800225E0D5F0FBF4FE52B4E50D24FDF8E684
:20029C00035401FE601BEF0303543FFE74075EF5F005F07401800225E0D5F0FBFE42B38009
:2002BC001AEF0303543FFE74075EF5F005F07401800225E0D5F0FBF4FE52B374805FFEBE0D
:2002DC008002800302036AEF03035407FE24FA50030203E4EE2E2E9002F77302030902038D
:2002FC000F02031502036702031B02034143DE040203E443DE020203E443DE010203E4A220
:20031C00AFE433F508C2AF75C7AA75C75543910143C60275C7AA75C7555391FEE50824FFCD
:20033C0092AF0203E4A2AFE433F508C2AF75C7AA75C75543910143C62075C7AA75C7555362
:20035C0091FEE50824FF92AF0203E40203E4EF03035407FE24FA4070EE2E2E90037B7302E6
:20037C00038D0203920203970203E402039C0203C153DEFB805253DEFD804D53DEFE80485E
:20039C00A2AFE433F508C2AF75C7AA75C75543910153C6FD75C7AA75C7555391FEE508249F
:2003BC00FF92AF8023A2AFE433F508C2AF75C7AA75C75543910153C6DF75C7AA75C755535A
:2003DC0091FEE50824FF92AF74035FFEBE0302800302046FE50D24FDF8E630E01BEF030381
:2003FC00543FFE74075EF5F005F07401800225E0D5F0FBFE42AD801AEF0303543FFE740759
:20041C005EF5F005F07401800225E0D5F0FBF4FE52ADE50D24FDF8E6035401FE601BEF0327
:20043C0003543FFE74075EF5F005F07401800225E0D5F0FBFE42AC801AEF0303543FFF741C
:20045C00075FF5F005F07401800225E0D5F0FBF4FF52ACD00D22E582FF54036002801BEFEB
:20047C000303543FFE74075EF5F005F0E5808002C313D5F0FB5401F5822274035FFEBE0118
:20049C001BEF0303543FFE74075EF5F005F0E5908002C313D5F0FB5401F5822274035FFE9D
:2004BC00BE031BEF0303543FFF74075FF5F005F0E5B08002C313D5F0FB5401F58222758277
:2004DC000022C00D85810DE582FF54036002803DE50D24FDF8E6601BEF0303543FFE7407B5
:2004FC005EF5F005F07401800225E0D5F0FBFE4280801AEF0303543FFE74075EF5F005F059
:20051C007401800225E0D5F0FBF4FE528074035FFEBE013DE50D24FDF8E6601BEF030354BA
:20053C003FFE74075EF5F005F07401800225E0D5F0FBFE4290801AEF0303543FFE74075E2A
:20055C00F5F005F07401800225E0D5F0FBF4FE529074035FFEBE033DE50D24FDF8E6601BD7
:20057C00EF0303543FFE74075EF5F005F07401800225E0D5F0FBFE42B0801AEF0303543F58
:20059C00FF74075FF5F005F07401800225E0D5F0FBF4FF52B0D00D22E582FF5403600302BA
:2005BC00067474405FFEBE40028003020674EF0303543FFE530607BE03028017BE04028011
:2005DC002DBE05028043BE06028059BE0702806F02067453E8F043E80643B108AEB274F756
:2005FC005EF5B275F60043F64043E101806A53E8F043E80543B110AEB274EF5EF5B275F655
:20061C000043F62043E101804F53E8F043E80443B120AEB274DF5EF5B275F60043F6104354
:20063C00E101803453E8F043E80343B140AEB274BF5EF5B275F60043F60843E10180195326
:20065C00E8F043E80243B180AEB2747F5EF5B275F60043F60443E10174035FFEBE014B748E
:20067C00405FFEBE4044EF0303543FFE530607BE01028005BE0733801B53E8F043E8074320
:20069C00B302AEB474FD5EF5B475F60043F68043E101801653E8F043B380AEB4747F5EF587
:2006BC00B475F60043F60143E10174035FFEBE032C74405FFEBE4025EF0303543FFF5307CA
:2006DC0007BF001953E8F043E80143AC01AFAD74FE5FF5AD75F60043F60243E101C2EFD2BB
:2006FC00EE30EFFDAFC37E00ACC27D00EC2EFEED3FFF8E82740F5FF58322C00D85810DAF9B
:20071C008274805FFEBE80028003020911EF54036003020832EF03035407FE24FA50030265
:20073C00090DEE2E2E9007457302075702076F02082F0207B70207FF020817E50D24FCF8EA
:20075C000886068ED5E50D24FCF886057E008DDD02090DA2AFE433F508C2AF75C7AA75C7F9
:20077C0055439101E50824FF92AFE50D24FCF80886068EC4E50D24FCF886058DCCA2AFE4CF
:20079C0033F508C2AF75C7AA75C755AE9174FE5EF591E50824FF92AF02090DA2AFE433F5CA
:2007BC0008C2AF75C7AA75C755439101E50824FF92AFE50D24FCF80886068EC5E50D24FC04
:2007DC00F886058DCDA2AFE433F508C2AF75C7AA75C755AE9174FE5EF591E50824FF92AFED
:2007FC0002090DE50D24FCF80886068ED5E50D24FCF886057E008DDD02090DE50D24FCF825
:20081C000886068ED4E50D24FCF886057E008DDC02090D02090D74035FFEBE010280030200
:20083C00090BEF03035407FF24FA500302090DEF2F2F9008527302086402087C0208940272
:20085C0009090208AB0208C2E50D24FCF80886078FD4E50D24FCF886067F008EDC02090D50
:20087C00E50D24FCF80886078FD4E50D24FCF886067F008EDC02090DE50D24FCF808860724
:20089C008FD2E50D24FCF886067F008EDA8062E50D24FCF80886078FD3E50D24FCF88606E5
:2008BC007F008EDB804BA2AFE433F508C2AF75C7AA75C755439101E50824FF92AFE50D24E0
:2008DC00FCF80886078FC5E50D24FCF886068ECDA2AFE433F508C2AF75C7AA75C755AF91A1
:1808FC0074FE5FF591E50824FF92AF800480028004D2DED2DFD00D2252
:20091400C0E0C082C083C0D09012B7E493F58C9012B8E493F58A74012509F509E4350AF5B4
:200934000AE4350BF50BE4350CF50CD0D0D083D082D0E032E4F509F50AF50BF50C5389F07A
:200954004389019012B7E493F58C9012B8E493F58AD2A9D2AFD28C22850982850A83850BE7
:20097400F0E50C22C00D85810DC082C083C0F0C0E0E5812404F58112096CAA82AB83AEF028
:20099400FFA80D08E62AFA08E63BFB08E63EFE08E63FFFE50D2405F8A60208A60308A606E3
:2009B40008A60712096CAC82AD83AEF0FFE50D2405F8C3EC96ED0896EE0896EF089640E3CD
:2009D400850D81D00D22C00DE581F50D2404F581AF82C007C02012096CAB82AC83ADF0FEC8
:2009F400D020D007A80D08A60308A60408A60508A6068F82C007C020120472AE82D020D06D
:200A140007A200E433FDEEB505028049C007C02012096CAB82AC83ADF0FED020D007A80DF1
:200A340008EBC396FBEC0896FCED0896FDEE0896FEE50D24FAF8C3E69B08E69C08E69D085A
:200A5400E69E50AEE50D24FAF886820886830886F008E6802312096CAC82AD83AEF0FFA8A6
:200A74000D08ECC396FCED0896FDEE0896FEEF0896FF8C828D838EF0850D81D00D22C00DF3
:200A940085810DAF82C007E4C0E0E50D24FDF886821204DE1581900001E4F5F0120978D059
:200AB400077E00E50D24FCF8E660178EF005F0E50D24FBF8E68002C313D5F0FBFD1392001A
:200AD40080218E047D007407C39CFCE49DFD8CF005F0E50D24FBF8E68002C313D5F0FBFC8A
:200AF400139200A200E433FDC007C006C0058F821204DE15817401C0E0E50D24FDF8868272
:200B14001204DE1581D006D0077D048D041CECFD70F9C007C006E4C0E0E50D24FDF88682E6
:200B34001204DE1581D006D0070EBE08005003020AB7D00D22C00D85810DAF827E007D0075
:200B5400E50D24FDF88682C007C006C005120472AC82D005D006D007BC01E5E50D24FCF838
:200B7400E6603A8F82C007C006C005120472E582D005D006D00760128DF005F07401800232
:200B940025E0D5F0FBFC420680558DF005F07401800225E0D5F0FBF4FC520680428F82C05A
:200BB40007C006C005120472E582D005D006D00760177407C39DFC8CF005F0740180022543
:200BD400E0D5F0FBFC420680167407C39DFC8CF005F07401800225E0D5F0FBF4FC5206E556
:200BF4000D24FDF88682C007C006C005120472E582D005D006D00760E60DBD080050030283
:070C14000B548E82D00D226B
:0212B700FACA71
:0900820075410075420075430050
:200C1B00C0E0C007C000C0D075D0001098028014AF420542EF2421F8A6997420B5420375D9
:200C3B0042000543D0D0D000D007D0E032AE82AF83ADB174BF5DF5B1ADB274BF5DF5B2ADAD
:200C5B00B1747F5DF5B1ADB2747F5DF5B2759850438920438780438E10ADC474DF5DF5C42E
:200C7B007D007C00C006C007C005C00490424075F00FE41211D4AC82E58124FCF581C3E418
:200C9B009CF58DD28ED29AC299D2ACD2AF22AF82C2998F993099FD22E5436017AF41054162
:200CBB00EF2421F987077420B5410375410015438F822275820022AE437F008E828F8322C3
:200CDB00C00D85810DC082C083C0F0C0E0E5812415F581E50D2409FB2410F876007A0F7F6B
:200CFB000FC002E50D24FDF8E50D2405F9E6F7097700097700097700C007C003E50D2405E7
:200D1B00F8E6C0E008E6C0E008E6C0E008E6C0E0A80D0886820886830886F008E6121162C9
:200D3B00AA82AC83FEE58124FCF581D003D0078A05EF2BF9BD0A00D00250088D0674302EA1
:200D5B00FE800474372DFEA706C007C003C002E50D2405F8E6C0E008E6C0E008E6C0E0086A
:200D7B00E6C0E0A80D0886820886830886F008E612122AA80D08A68208A68308A6F008F690
:200D9B00E58124FCF581D002D003D007A80D08E608460846084660081FEFFA6003020CFC56
:200DBB00EA2BFB7F007E40C003C007C006120EF2158115811581850D81D00D22C00D8581C2
:200DDB000DC082C083C0F0C0E0E581240DF5817B00E50D2405FA240BF87600A80D0808E631
:200DFB0030E72BC002A80D08E6F4FA08E6F4FD08E6F4FE08E6F4FFA80D0874012AF6E43D30
:200E1B0008F6E43E08F6E43F08F67B01D0027F0AE50D2411F8760AC003E50D2411F8E62A10
:200E3B00F9C007C002C001740AC0E0E4C0E0C0E0C0E0A80D0886820886830886F008E6121E
:200E5B001162AB82E58124FCF581D001D00274302BF7C003C002740AC0E0E4C0E0C0E0C0EB
:200E7B00E0A80D0886820886830886F008E612122AA80D08A68208A68308A6F008F6E581CF
:200E9B0024FCF581D002D003D007D003A80D08E60846084608466018E50D2411F816E50D26
:200EBB002411F88607E50D2411F8E66003020E32EB60088F061FEE2AF8762DEF2AFA7F0067
:200EDB007E40C002C007C006120EF2158115811581850D81D00D22C00D85810D0581E50DAC
:200EFB0024FBFFA80D08A607E50D24FBF886040886050886068C828D838EF0121297FB70D3
:200F1B0003021076BB25028003021047E50D24FBF874012CF6E43D08F608A606E50D24FBE9
:200F3B00F886040886050886068C828D838EF0121297FB7003021076BB6435E50D24FBF843
:200F5B0074012CF6E43D08F608A606A80D08E624FEFAA80D08A6028A01870209870719EF35
:200F7B003395E0FE8A828F838EF0120DD7021047BB783DE50D24FBF874012CF6E43D08F696
:200F9B0008A606A80D08E624FEFFA80D08A6078F01870209870719EF3395E0FEFD7410C0B5
:200FBB00E08A828F838EF0ED120CDB1581021047BB6F3CE50D24FBF874012CF6E43D08F6A0
:200FDB0008A606A80D08E624FEFFA80D08A6078F01870209870719EF3395E0FEFD7408C07D
:200FFB00E08A828F838EF0ED120CDB1581803DBB623AE50D24FBF874012CF6E43D08F60803
:20101B00A606A80D08E624FEFFA80D08A6078F01870609870719EF3395E0FDFC7402C0E068
:20103B008E828F838DF0EC120CDB1581E50D24FBF886050886060886078D828E838FF0120D
:20105B001297FCE50D24FBF874012DF6E43E08F608A6078C82120CA9020F031581D00D22DC
:16107B00AF82E5F420E0FBAEF4747F5EF5F48FF5E5F485F5822203
:2010910090E100020C4875825D1205B4AE82AF83C006C00774B9C0E07412C0E07480C0E0E3
:2010B100120EF2E58124FBF581E4C0E07582111200B115817E007F00C007C006E4C0E075AA
:2010D10082111204DE1581900064E4F5F01209787401C0E07582111204DE1581900064E413
:2010F100F5F0120978D006D0070EBE00010FC3EE941EEF6480948040BFE4C0E07582911277
:2011110000B115817E007F007C007D00C007C006C005C004C004C005758291120716158195
:201131001581900001E4F5F0120978D004D005D006D0070CBC00010DC3ED6480948840CC33
:111151000EBE00010FC3EE940AEF6480948040B82261
:0A12B900414443303A2025640A0046
:06005800E478FFF6D8FD7C
:200036007900E94400601B7A009012C3780075A000E493F2A308B8000205A0D9F4DAF2759C
:02005600A0FF09
:20005E007800E84400600A790075A000E4F309D8FC7800E84400600C7900900000E4F0A3A2
:04007E00D8FCD9FAD7
:20116200F9E58124FBF886020886030886040886057800EA4B4C4D60587800C308ED20E784
:2011820027EA25E0FAEB33FBEC33FCED33FDE5829AE5839BE5F09CE99D50E1C3ED13FDEC14
:2011A20013FCEB13FBEA13FAE5829AE5839BFEE5F09CFFE99D400AF98FF08E83E5829AF56D
:1211C20082C3ED13FDEC13FCEB13FBEA13FAD8D8E92233
:2011D400FBC2D530E715D2D5E4C39582F582E49583F583E495F0F5F0E49BFBE58124FEF8A5
:2011F400E630E715B2D5181818E4C396F6E40896F6E40896F6E40896F61818181212303093
:16121400D513FBE4C39582F582E49583F583E495F0F5F0E49B2249
:20122A00FBE58124FBF8E6F9087A20E4FCFDFEFFE5822582F582E58333F583E5F033F5F04C
:20124A00EB33FB4017DAE98042E5822582F582E58333F583E5F033F5F0EB33FBEC33FCEDE9
:20126A0033FDEE33FEEF33FFEC99ED96EE0896EF089618184013EC99FCED96FDEE0896FEC5
:0D128A00EF0896FF1818438201DABEEB2230
:0D0029007581431212B3E5826003020026C8
:1C12970020F71430F6148883A88220F507E6A88375830022E280F7E49322E02266
:0412B300758200221E
:00000001FF
